:020000040800F2
:1000000008130020A1010008893E00082B350008D4
:10001000853E0008D3090008516200080000000076
:10002000000000000000000000000000AD490008D2
:10003000BF0C000800000000A1410008D9490008D9
:10004000BB010008BB010008BB010008BB010008A0
:10005000BB010008BB010008BB010008BB01000890
:10006000BB010008BB010008BB010008BB01000880
:10007000750B0008BB010008850B0008BB010008D8
:10008000BB010008BB010008BB010008BB01000860
:10009000BB010008BB010008BB010008190D0008E6
:1000A000814B0008BD4B0008BB010008BB010008E4
:1000B000BB010008BB010008BB010008BB01000830
:1000C000BB010008BB010008BB010008BB01000820
:1000D000BB010008E1580008BB0100087159000885
:1000E000010D0008BB010008BB010008BB010008AE
:1000F000BB010008BB010008BB010008BB010008F0
:10010000BB010008BB010008BB010008BB010008DF
:10011000BB010008BB010008E14B0008BB0100085F
:10012000BB010008BB010008950B0008BB010008DB
:10013000BB010008BB010008BB010008BB010008AF
:10014000BB010008BB010008BB010008BB0100089F
:10015000BB010008BB010008A50B0008BB0100089B
:10016000BB010008BB010008BB010008BB0100087F
:10017000BB010008BB010008BB0100080000000033
:10018000BB010008BB010008DFF810D000F05AFBEB
:10019000004800472D720008AFF3008008130020CC
:1001A0000648804706480047FEE7FEE7FEE7FEE711
:1001B000FEE7FEE7FEE7FEE7FEE7FEE76D4B000821
:1001C000890100082DE9F05F0546002092469B4614
:1001D00088460646814640241BE02846414647465D
:1001E000224600F078FA53465A46C01A914110D37D
:1001F00011461846224600F05FFA2D1A67EB0108F7
:100200004F4622460120002100F056FA17EB000964
:100210004E41201EA4F10104DFDC484631462A4647
:100220004346BDE8F09F40EA01039B0703D009E085
:1002300008C9121F08C0042AFAD203E011F8013BD2
:1002400000F8013B521EF9D27047D2B201E000F82B
:10025000012B491EFBD270470022F6E710B513466A
:100260000A4604461946FFF7F0FF204610BD2DE967
:10027000FE4F804681EA0300C00F0C46009021F03B
:10028000004123F00045B8EB0200A94105D24046E9
:10029000214690461C460B46024623F00040104380
:1002A00047D0270DC7F30A00C3F30A510290401A42
:1002B000019040286BDAC3F3130040F4801B0098D0
:1002C000924620B10023D2EB030A63EB0B0B01989B
:1002D0005946C0F14002504600F0EEF906460D4680
:1002E00050465946019A00F006FA10EB08006141A9
:1002F000002487EA115284EAE7731A4340D0009A37
:1003000062B3019A012A4FEA075215DC001B61EB28
:1003100002014FF0004202EA0752CDE90042001C00
:1003200041F5801132462B4600F03DFA03B0BDE89E
:10033000F08F40462146F9E7001B61EB0201001CEB
:1003400041F5801300185B412018A2F5001747EB18
:10035000030140EAD570B6196D4111E06D084FEA0E
:10036000360645EAC0754FEA0752001B61EB0201F1
:10037000001C41F5801149084FEA30000019514135
:1003800032462B4603B0BDE8F04F00F0FDB90098AF
:10039000012240000023D0EB020263EBE0730098DF
:1003A00021464FEAE074B8EB000061EB0401E9E795
:1003B00083F000435BE781F0004158E72DE9FE4FF1
:1003C00081EA030404F0004421F0004100944FF05E
:1003D000000B23F0004350EA01045ED052EA03040C
:1003E0005BD0C3F30A54C1F30A552C44A4F2F3348E
:1003F0000194A0FB0254C1F3130141F48011C3F333
:10040000130343F4801301FB024400FB034E840AF0
:10041000970A44EA815447EA8357A4FB0768029588
:100420008D0A05FB07854FEA932C04FB0C54270526
:10043000029D4FEA065847EA1637B5EB08056EEB02
:10044000070C870E920E47EA811742EA8312A7FB38
:100450000201B6EB0B0164EB00042B0D43EA0C33F5
:100460005E1844EB1C50DA465146E7FB0201C5F327
:1004700013044FEA0B3343EA14534FEA0432019C4E
:1004800043EA0603A4F10C040294009CCDE900B4F5
:1004900000F089F903B0BDE8F08F00200146F9E7CC
:1004A0002DE9F04D81EA030404F0004B21F00045F2
:1004B00014464FF0000A23F0004150EA050220D014
:1004C00054EA01021DD0C5F30A570246C5F31303CF
:1004D000C1F31300C1F30A5640F4801543F48013AE
:1004E000A7EB0608101BD64608F2FD3873EB050093
:1004F00002D308F1010801E092185B41B8F1000F46
:1005000003DA00200146BDE8F08D00204FF4801191
:10051000064684460EE0171B73EB050705D3121B36
:1005200063EB050306434CEA010C49084FEA30002F
:1005300092185B4150EA0107EDD152EA030012D054
:1005400082EA040083EA0501084305D0101BAB4191
:1005500006D20122002306E000224FF0004302E011
:100560006FF0010253101AEB06004CEB085110EB30
:100570000A0041EB0B01BDE8F04D00F005B90EB5E6
:10058000C10F80EAE0700844CA07002140F23343FB
:100590008DE80E000A460B4600F005F903B000BDD9
:1005A0000EB540F2334102910021CDE900110A4617
:1005B0000B4600F0F8F803B000BD70B5C1F30A5265
:1005C00001F000450024C1F3130140F2FF3341F470
:1005D00080119A4201DA002070BD40F233439A4202
:1005E000A2F2334203DC524200F075F800E0904082
:1005F0002C43F1D0404270BDC1F30A5210B5C1F393
:10060000130140F2FF3341F480119A4201DA0020D5
:1006100010BD40F233439A42A2F2334203DC52420D
:1006200000F059F810BD904010BD00F0004230F0CD
:1006300000400AD0C10D01F56071C0F3160042EA16
:100640000151C2084007114370470020014670471E
:1006500030B5041E71F1000404DB4FF00044404249
:1006600064EB0101141E73F1000405DB1C464FF01E
:100670000043524263EB04038B4208BF824230BD09
:1006800001F0004330B421F0004150EA010206D0ED
:100690000A0DA2F56072C1F31301002A02DC30BC1E
:1006A00000207047440F44EAC104C100E01830BC88
:1006B00000EBC25000F031B8202A04DB203A00FAE7
:1006C00002F1002070479140C2F1200320FA03F3A9
:1006D000194390407047202A04DB203A21FA02F0A7
:1006E0000021704721FA02F3D040C2F1200291406C
:1006F000084319467047202A06DBCB17203A41FAF7
:1007000002F043EAE07306E041FA02F3D040C2F19E
:10071000200291400843194670470029A8BF70473E
:10072000401C490008BF20F00100704710B4B0FA27
:1007300080FC00FA0CF050EA010404BF10BC7047C2
:1007400049B1CCF1200421FA04F411FA0CF118BFDC
:10075000012121430843A3EB0C01CB1D4FEA0061AB
:100760004FEA102042BF002010BC704700EBC3507E
:1007700010440029A4BF10BC7047401C490008BFAA
:1007800020F0010010BC704710B5141E73F1000476
:1007900008DA401C41F1000192185B411A4301D173
:1007A00020F0010010BD2DE9F04D92469B4611B19D
:1007B000B1FA81F202E0B0FA80F220329046FFF7FF
:1007C0007BFF04460F4640EA0A0041EA0B0153460C
:1007D0005A46084313D0114653EA010019D0C8F114
:1007E00040025046FFF777FF05460E4650465946F1
:1007F0004246FFF761FF084305D0012004E0204690
:100800003946BDE8F08D0020054346EAE0762C43EA
:1008100037430A986305E40AA0EB08000022FD0AAA
:1008200044EA47540A3002D500200146E9E70105B1
:1008300010196941DDE9084500196941BDE8F04D2D
:10084000A2E70000064C074D06E0E06840F0010317
:1008500094E8070098471034AC42F6D3FFF798FCB1
:10086000407C0008607C000870B58C1810F8015BB3
:1008700015F0070301D110F8013B2A1106D110F839
:10088000012B03E010F8016B01F8016B5B1EF9D13D
:100890002B0705D40023521E0DD401F8013BFAE7C3
:1008A00010F8013BCB1A921C03E013F8015B01F82E
:1008B000015B521EF9D5A142D8D3002070BD0000C3
:1008C0002DE9F0412DED068B04460D461646002716
:1008D000B84606F00FFA284606F0D6F906F050FAA8
:1008E000FE2006F0D1F906F04BFA06F003FA691C77
:1008F000C8B206F0C9F906F043FA002006F096F9EE
:10090000074606F01DFA06F0F5F9284606F0BCF990
:1009100006F036FAFF2006F0B7F906F031FA06F0D5
:10092000E9F9691CC8B206F0AFF906F029FA00200F
:1009300006F07CF9804606F003FA48EA871030801A
:100940003088A08094ED020A84ED030AA088FFF7A6
:1009500027FE41EC1A0B9FED0B0B53EC102BFFF70E
:100960002DFD41EC190B9FED090B53EC102BFFF7FC
:1009700097FD41EC180BFFF783FEA060BDEC068BE2
:10098000BDE8F0810000000000807640000000001B
:1009900080FFCF40F0B503461C460D4610460026AA
:1009A00014E014F801CBBCF1000F08D115F801CB0D
:1009B000BCF1010F03D107787F1C00F8017B077899
:1009C000022F01DD00270770771CFEB22C2EE8D322
:1009D000F0BD00BFFEE730B502460B464FF6FF7094
:1009E000002111E0555C684000240AE000F0010598
:1009F000002D04DD40104AF20105684000E040107F
:100A0000641C082CF2DB491C9942EBDB30BD000072
:100A10002DE9F04106460C463546274697F83A0040
:100A2000001F052818D2DFE800F0130F0B070300A2
:100A300000201549087014E001201349087010E0E7
:100A40000220114908700CE003200F49087008E0EB
:100A500003200D49087004E00B4800780A4908702B
:100A600000BF00BF97F83A00042806D1AA8991B2C6
:100A70000122A86800F0F4FC04E00348017828464D
:100A800003F0C8FCBDE8F0817C04002013B582B0FF
:100A9000044603AA2C492D4805F0FCFE03982028A3
:100AA00002D905F0C9FE4DE02848007828490978A8
:100AB000884245D125488078112841D12348C07803
:100AC00001283DD121480079032839D11F484078B9
:100AD000801C0399884230D11C4840781B49085C2F
:100AE0008DF8040008464078401C085C8DF805002D
:100AF00008464178FFF76FFFBDF80410884219D10E
:100B000012484178FFF767FFA0B106F023FE0F48B7
:100B100005F0CAFF0F4B104A1049114806F05AFE63
:100B2000104806F029FE104A10491148FFF732FF1D
:100B300005F082FE05F080FE04E005F07DFE01E098
:100B400005F07AFE1FBD0000F0070020700A0020AB
:100B5000480000208C0D0020AC0D00207C0D0020F2
:100B60009C0D0020BC0D0020500D0020240D002005
:100B7000F80C002010B5024800F078F910BD000014
:100B8000380C002010B5024800F070F910BD0000CC
:100B9000980C002010B5024800F068F910BD000064
:100BA000780B002010B5024800F060F910BD00007D
:100BB000D80B00200146087810381823B0FBF3F258
:100BC0000848805CC865032A05D908686FF30900E6
:100BD000001D886503E008686FF309008865886D6B
:100BE00070470000207C0008014600208A6A8B695B
:100BF000CBB932B1012A0DD0022A03D0032A10D179
:100C00000EE000BFCB6A03F08073B3F1807F00D1A8
:100C1000012007E0CB6AB3F1C07F00D1012001E0E1
:100C200000E000BF34E08B69B3F5005F1AD132B148
:100C3000012A07D0022A03D0032A11D10AE000BFFB
:100C400001200EE0CB6A03F08073B3F1807F00D106
:100C5000012006E0CB6AB3F1C07F00D1012000E0A3
:100C600000BF15E032B1012A05D0022A04D0032AC0
:100C70000CD103E000BF00BF012008E0CB6A03F005
:100C80008073B3F1807F00D1012000E000BF00BF7E
:100C9000704730B50468246824F4802405682C600B
:100CA000046863608468402C04D10468A26004680E
:100CB000E16003E00468A1600468E26030BD704751
:100CC00010B5012204210C4800F0CAFB01221021BA
:100CD000094800F0C5FB01229103084800F0C0FB61
:100CE00001225103054800F0BBFB0122D103034858
:100CF00000F0B6FB10BD00000000024000040240FE
:100D000010B54FF4804000F091FA00200149C872FC
:100D100010BD00007C0D002010B5012002490870B4
:100D2000202000F083FA10BD7602002072B600BFCA
:100D3000FEE7000010B5024805F0E4FC10BD00001D
:100D40003008002010B5044607492068884209D1C0
:100D5000A18A206900F072FBA073A18BA06900F04A
:100D60006DFBE07310BD00002805002070B54FF446
:100D70000041074800F062FB05464FF480610548DA
:100D800000F05CFB45EA4000C4B2204670BD0000A4
:100D9000000002400008024070B50446A56D00F056
:100DA00065FB064694F83500022808D0802060656F
:100DB00000BF002084F8340000BF012070BD20680F
:100DC000006820F01600216808602068406920F063
:100DD000800021684861206C08B9A06C28B12068A7
:100DE000006820F00800216808602068006820F092
:100DF00001002168086010E000F038FB801B052826
:100E00000BD920206065032084F8350000BF002046
:100E100084F8340000BF0320D0E72068006800F0A9
:100E200001000028E8D194F85C103F208840A860B9
:100E3000012084F8350000BF002084F8340000BF92
:100E400000BFBBE7014691F83500022803D080209F
:100E5000486501207047052081F835000868006862
:100E600020F001000A6810600020F3E7F8B504469E
:100E7000002000908C4800684FF41651B0FBF1F749
:100E8000A56D2E6894F85C1008208840304098B119
:100E90002068006800F0040070B12068006820F04D
:100EA00004002168086094F85C1008208840A8605D
:100EB000606D40F00100606594F85C10012088408E
:100EC000304068B12068406900F0800040B194F87B
:100ED0005C1001208840A860606D40F002006065F1
:100EE00094F85C1004208840304068B120680068A5
:100EF00000F0020040B194F85C1004208840A86023
:100F0000606D40F00400606594F85C10102088402B
:100F1000304078B32068006800F0080050B394F8BF
:100F20005C1010208840A8602068006800F48020D1
:100F300080B12068006800F4002028B9206CC8B196
:100F40002046216C884715E0A06C98B12046A16C22
:100F500088470FE02068006800F4807028B9206896
:100F6000006820F0080021680860206C10B120465D
:100F7000216C884794F85C1020208840304000287D
:100F800065D02068006800F0100000285FD094F859
:100F90005C1020208840A86094F83500052828D1EE
:100FA0002068006820F01600216808602068406909
:100FB00020F0800021684861206C08B9A06C28B13D
:100FC0002068006820F008002168086094F85C1030
:100FD0003F208840A860012084F8350000BF002031
:100FE00084F8340000BF206D10B12046216D884781
:100FF000F8BD2068006800F4802080B12068006897
:1010000000F4002028B9606C10B12046616C88475C
:101010001DE0E06BD8B12046E16B884717E02068FF
:10102000006800F4807068B92068006820F0100043
:1010300021680860012084F8350000BF002084F892
:10104000340000BFE06B10B12046E16B8847606D53
:1010500038B3606D00F00100F0B1052084F8350070
:101060002068006820F001002168086000BF009837
:10107000401C0090B84200D905E02068006800F0EC
:1010800001000028F3D100BF012084F8350000BF23
:10109000002084F8340000BFE06C10B12046E16C01
:1010A000884700BFA4E70000B80400202DE9F04104
:1010B0000446002500F0DAF9074614B90120BDE81E
:1010C000F081606A00B100BF022084F8350000BFE3
:1010D000002084F8340000BF2068006820F0010080
:1010E000216808600AE000F0C1F9C01B052805D995
:1010F00020206065032084F83500E0E72068006860
:1011000000F001000028EED1206805682148054064
:10111000D4E901010843E168084321690843616992
:101120000843A1690843E1690843216A084305436C
:10113000606A042803D1D4E90B0108430543206801
:1011400005602068456925F00705606A0543606A07
:1011500004280DD1A06A0543E06A48B12046FFF794
:1011600043FD28B140206065012084F83500A6E7E2
:10117000206845612046FFF71DFD064694F85C1087
:101180003F208840B06000206065012084F8350071
:10119000002094E73F8010F02DE9F04704460D460B
:1011A00016461F464FF00008D4F8589000BF94F838
:1011B0003400012802D10220BDE8F087012084F824
:1011C000340000BF94F83500012825D1022084F8AE
:1011D0003500002060653B46324629462046FFF731
:1011E00058FD94F85C103F208840C9F8080020683A
:1011F000006840F0160021680860206C28B1206863
:10120000006840F00800216808602068006840F02D
:1012100001002168086006E000BF002084F8340067
:1012200000BF4FF002084046C6E7704710B50446BD
:1012300004480068204020B1024804602046FFF7BF
:10124000F4FF10BD143C0140F8B502460B460025E2
:10125000002400200021D6E0012606FA01F51E68D0
:1012600006EA0504AC4274D11E7906F00306012E8D
:1012700004D01E7906F00306022E13D190684F00A9
:101280000326BE40B0434F00DE68BE40304390604E
:10129000506801268E40B0431E79C6F300168E407A
:1012A000304350601E7906F00306032E09D0D06843
:1012B0004F000326BE40B0434F009E68BE403043FF
:1012C000D0601E7906F00306022E13D1CF0802F17A
:1012D000200656F827004E07F70E0F26BE40B043F3
:1012E0004F07FF0E1E69BE403043CF0802F12006B3
:1012F00046F8270010684F000326BE40B0431E7911
:1013000006F003064F00BE40304310605E6806F4EE
:101310004036002E76D000BF002600963C4E366840
:1013200046F480463A4F3E603E46366806F48046B4
:10133000009600BF00BF374E8F0856F827008E0773
:10134000370F0F26BE40B043334EB24202D10026C3
:1013500024E057E0314EB24201D101261EE0304E6A
:10136000B24201D1022619E02E4EB24201D103262B
:1013700014E02D4EB24201D104260FE02B4EB242B2
:1013800001D105260AE02A4EB24201D1062605E027
:10139000284EB24201D1072600E008268F073F0FF2
:1013A000BE4030431B4E8F0846F82700224E30685F
:1013B000A0435E6806F4801606B120431E4E3060DE
:1013C000361D3068A0435E6806F4001606B120435F
:1013D000194E361D3060184E361F3068A0435E68C7
:1013E00006F4003606B12043134E361F3060361F18
:1013F0003068A0435E6806F4803606B120430E4E86
:10140000083E3060491C1029FFF426AFF8BD0000EB
:101410004438024008380140000002400004024005
:1014200000080240000C024000100240001402407C
:1014300000180240001C0240083C014002461369AB
:101440000B400BB1012000E00020704710B542694D
:1014500021EA020302EA010443EA0443836110BD66
:101460000AB1816101E00B048361704701480068A3
:1014700070470000AC040020034800680349097865
:101480000844014908607047AC040020B4040020FF
:1014900010B50D48006840F400700B49086008461C
:1014A000006840F4806008600846006840F480707E
:1014B0000860032000F0A6F8072000F007F800F00D
:1014C0002BF8002010BD0000003C024070B504461F
:1014D0000E4800784FF47A71B1FBF0F00C490968BE
:1014E000B1FBF0F5284600F0ECFD08B1012070BD1D
:1014F000102C07D200222146501E00F045F8054866
:10150000046001E00120F2E70020F0E7B4040020CD
:10151000B8040020B004002008B500BF00200090EF
:101520001048006840F480400E4908600846006892
:1015300000F48040009000BF00BF00BF002000907A
:10154000081F006840F08050091F086008460068C6
:1015500000F08050009000BF00BF042000F052F85F
:1015600008BD00004438024001460846002809DB57
:1015700000F01F0301229A4043099B0003F1E0237E
:10158000C3F8002100BF70472DE9F05F80460D468B
:101590001646002704F062FE074639462A463346BF
:1015A00001F00700C0F1070ABAF1040F02D94FF0A9
:1015B000040A01E0C0F1070AD14600F1040ABAF1B9
:1015C000070F02D24FF0000A01E0A0F1030AD4464F
:1015D0004FF0010A0AFA09FAAAF1010A0AEA020A14
:1015E0000AFA0CFA4FF0010B0BFA0CFBABF1010BF2
:1015F0000BEA030B4AEA0B042146404604F036FE90
:10160000BDE8F09F00BF00F00702064B19684FF6D7
:10161000FF031940044B0B4343EA0221014B1960BD
:1016200000BF70470CED00E00000FA0570B50446FD
:101630000D460CB9012070BD5848006800F0070045
:10164000A84209D255490D700846006800F007000D
:10165000A84201D00120EEE7207800F00200022825
:101660001DD1207800F00400042805D14C48006802
:1016700040F4E0504A490860207800F0080008284B
:1016800005D14748006840F4604045490860444837
:10169000006820F0F000A168084341490860207804
:1016A00000F00100A8B36068012807D13C48083861
:1016B0000068C0F34040B8B90120BCE76068022868
:1016C00002D06068032807D1354808380068C0F3A5
:1016D000406048B90120AEE7314808380068C0F3DF
:1016E000400008B90120A6E72D48006820F003005B
:1016F000616808432A490860FFF7B8FE064609E01A
:10170000FFF7B4FE801B41F28831884202D90320E2
:1017100091E707E02248006800F00C006168B0EB38
:10172000810FEDD11D48006800F00700A84209D9DB
:101730001A490D700846006800F00700A84201D061
:10174000012078E7207800F00400042807D114482D
:10175000006820F4E050E1680843114908602078EF
:1017600000F00800082808D10D48006820F4604007
:10177000216940EAC1000A49086000F03FF80849C1
:101780000968C1F30311074A515CC8400649086063
:1017900006480068FFF79AFE00204CE7003C024034
:1017A00008380240287C0008B8040020B00400205B
:1017B0000148006870470000B804002000B5FFF73A
:1017C000F7FF04490968C1F38221034A515CC8400C
:1017D00000BD000008380240387C000800B5FFF763
:1017E000E7FF04490968C1F34231034A515CC8402C
:1017F00000BD000008380240387C00082DE9F047A1
:10180000002400250026A1462548006800F00C00B1
:1018100020B1042805D008283AD105E0DFF88490EB
:1018200039E0DFF8849036E01D48001F006800F0C2
:101830003F041B48001F006800F4800078B11A487C
:101840001749091F0968C1F38811A0FB01700146FF
:10185000224600233846FEF7B5FC05460EE0114847
:101860000F49091F0968C1F38811A0FB01700146E7
:10187000224600233846FEF7A5FC05460848001F0F
:101880000068C0F30140401C4600B5FBF6F902E0D9
:10189000DFF8109000BF00BF4846BDE8F0870000A9
:1018A000083802400024F40000127A00F8B504461B
:1018B0000CB90120F8BD207800F00100002874D098
:1018C000F948006800F00C0004280DD0F6480068C4
:1018D00000F00C00082813D1F348001F006800F442
:1018E0008000B0F5800F0BD1EF4808380068C0F3D6
:1018F0004040002859D06068002856D10120D9E71F
:1019000000BF6068B0F5803F08D1E748083800683C
:1019100040F48030E449083908601EE06068B0F5A2
:10192000A02F0DD1E0480838006840F48020DE493F
:10193000083908600846006840F4803008600CE010
:10194000D9480838006820F48030D7490839086041
:101950000846006820F48020086000BF606890B1ED
:10196000FFF784FD054606E0FFF780FD401B642875
:1019700001D903209EE7CC4808380068C0F34040F6
:101980000028F1D011E0FFF771FD054606E0FFF7F2
:101990006DFD401B642801D903208BE7C24808383D
:1019A0000068C0F340400028F1D1207800F0020028
:1019B00002285FD1BC48006800F00C0058B1BA485A
:1019C000006800F00C0008281CD1B748001F006810
:1019D00000F48000B0B9B44808380068C0F3400093
:1019E00020B1E068012801D0012063E7AE48083843
:1019F000006820F0F800216940EAC100AA490839CE
:101A0000086037E0E06800B30120A8490860FFF7EC
:101A10002DFD054606E0FFF729FD401B022801D9F0
:101A2000032047E7A04808380068C0F340000028BA
:101A3000F1D09D480838006820F0F800216940EA9C
:101A4000C10099490839086014E0002097490860EE
:101A5000FFF70CFD054606E0FFF708FD401B0228D6
:101A600001D9032026E7904808380068C0F34000F9
:101A70000028F1D1207800F0080008282CD16069F6
:101A8000A8B101208A490860FFF7F0FC054606E08E
:101A9000FFF7ECFC401B022801D903200AE782482B
:101AA0006C300068C0F340000028F1D014E0002042
:101AB0007F490860FFF7DAFC054606E0FFF7D6FC31
:101AC000401B022801D90320F4E677486C300068F7
:101AD000C0F340000028F1D1207800F00400042871
:101AE00070D1002770483830006800F0805090B9FD
:101AF00000BF002000906C483830006840F08050F3
:101B00006949383108600846006800F0805000904C
:101B100000BF00BF01276748006800F48070B0B9BB
:101B20006448006840F4807062490860FFF79EFCDA
:101B3000054606E0FFF79AFC401B022801D9032066
:101B4000B8E65C48006800F480700028F2D000BF5E
:101B5000A068012808D154486830006840F00100AE
:101B60005149683108601DE0A06805280DD14E4834
:101B70006830006840F004004B496831086008464E
:101B8000006840F0010008600CE0474868300068D9
:101B900020F001004449683108600846006820F0E0
:101BA0000400086000BFA068A8B1FFF75FFC05460D
:101BB00009E0FFF75BFC401B41F28831884202D903
:101BC000032077E626E0384868300068C0F340001C
:101BD0000028EED013E0FFF749FC054608E0FFF7C8
:101BE00045FC401B41F28831884201D9032061E65F
:101BF0002D4868300068C0F340000028EFD1012F65
:101C000007D129483830006820F080502649383103
:101C1000086000BFA069002845D02348006800F094
:101C20000C0008285DD0A069022845D100201F497A
:101C30000866FFF71BFC054606E0FFF717FC401B94
:101C4000022801D9032035E6174808380068C0F398
:101C500040600028F1D1D4E907010843616A40EAF5
:101C600081110122A06AC2EB500041EA00412C2000
:101C7000005D41EA00600C49091F086001200B4922
:101C80000866FFF7F3FB054606E0FFF7EFFB401B96
:101C9000022801D903200DE6034808380068C0F384
:101CA00040600028F1D049E0083802400000474277
:101CB000800E474200700040002021490866FFF76F
:101CC000D5FB054606E0FFF7D1FB401B022801D9F2
:101CD0000320EFE51B480068C0F340600028F2D104
:101CE0002CE0A069012800D1E4E51648001D066833
:101CF000A069012820D006F48001E06981421BD14F
:101D000006F03F01206A814216D147F6C07030408C
:101D1000616AB0EB811F0FD106F440310122A06A45
:101D2000C2EB5000B1EB004F06D106F070612C20E1
:101D3000005DB1EB006F01D00120BBE50020B9E5EB
:101D4000000047420038024010B504460CB901209B
:101D500010BD606A38B96068B0F5827F00D105E0D7
:101D60000021E16102E00021216161610021A162A5
:101D700094F8510028B9002084F85000204600F063
:101D800047F8022084F851002068006820F04000E5
:101D900021680860A08800F48270218901F4044160
:101DA0000843A18901F400610843217C01F002018C
:101DB0000843217D01F001010843218B01F40071EA
:101DC0000843217F01F0380108432021095D01F01B
:101DD00080010843218D01F4005108432168086007
:101DE0000421A06901EA104094F8241001F01001C8
:101DF0000843216848602068C06920F400602168B9
:101E0000C86100206065012084F8510000209FE730
:101E100010B586B00446142101A8FEF71DFA1B492F
:101E2000206888422FD100BF002000901848006829
:101E300040F48050164908600846006800F480505D
:101E4000009000BF00BF00BF002000901048143871
:101E5000006840F001000E49143908600846006827
:101E600000F00100009000BF00BFE02001900220C0
:101E7000029000200390032004900520059001A902
:101E80000448FFF7E1F906B010BD00000030014042
:101E900044380240000002402DE9FF5F04468846B6
:101EA00091461D460E9E012002900020019000BF29
:101EB00094F85000012803D1022004B0BDE8F09F3F
:101EC000012084F8500000BFFFF7D0FA074694F8CD
:101ED00051B060680390AA46BBF1010F0BD0039884
:101EE000B0F5827F04D1A06810B9BBF1040F02D015
:101EF00002200190DBE0B8F1000F03D0B9F1000F30
:101F000000D015B901200190D1E094F851000428C7
:101F100002D0052084F8510000206065C4F8389094
:101F2000E587A587C4F83080E586A58620646064CF
:101F30002068006800F04000402805D02068006854
:101F400040F0400021680860E068B0F5006F4AD1B9
:101F5000606810B1BAF1010F09D1206B00882168C7
:101F6000C860206B801C2063E08E401EE08633E05A
:101F70002068806800F00200022810D1E08E70B165
:101F8000029801280BD1206B00882168C860206B63
:101F9000801C2063E08E401EE086002002902068B6
:101FA000806800F0010068B1E08F58B12068C06817
:101FB000A16B0880A06B801CA063E08F401EE087AF
:101FC00001200290FFF752FAC01BB04204D3701CEC
:101FD00010B1032001906AE0E08E0028C8D1E08FA4
:101FE0000028C5D14AE0606810B1BAF1010F09D1EB
:101FF000206B007821680873206B401C2063E08E02
:10200000401EE08634E02068806800F0020002286C
:1020100010D1E08E70B1029801280BD1206B0078AE
:1020200021680873206B401C2063E08E401EE08610
:10203000002002902068806800F0010068B1E08F05
:1020400058B12068C068A16B0870A06B401CA063E9
:10205000E08F401EE08701200290FFF707FAC01BC7
:10206000B04201D3701C00B916B9032001901EE0E4
:10207000E08E0028C7D1E08F0028C4D13A4631460F
:10208000204602F0F1FB20B1012001902020606584
:102090000DE0A06850B900BF002000902068C06823
:1020A000009020688068009000BF00BF00BF012042
:1020B00084F8510000BF002084F8500000BF019850
:1020C000FBE670B504462546681EB0F1807F01D35B
:1020D00001200FE0681E4FF0E02148610F214FF012
:1020E000FF3004F0C3F800204FF0E02188610720A2
:1020F0000861002070BD7047704710B5034600228C
:1021000000BF93F83C00012801D1022010BD01203E
:1021100083F83C0000BF22F0FF00CC6840EA0402D4
:1021200022F440708C6840EA040222F480604C681B
:1021300040EA040222F400600C6840EA040222F43F
:1021400080500C6940EA040222F400504C6940EAD5
:10215000040222F48040CC6940EA04021868426418
:1021600000BF002083F83C0000BF00BFCEE70000A6
:1021700030B502460B4600BF92F83C00012801D161
:10218000022030BD012082F83C0000BF022082F80E
:102190003D00106844681068816824F07004186875
:1021A000044310684460184D1068A8421BD01068A2
:1021B000B0F1804F17D0154D1068A84213D0144DC0
:1021C0001068A8420FD0134D1068A8420BD0124DD2
:1021D0001068A84207D0114D1068A84203D0104DD6
:1021E0001068A84205D121F08001586801431068A9
:1021F0008160012082F83D0000BF002082F83C0091
:1022000000BF00BFBDE70000000001400004004027
:1022100000080040000C0040000401400040014064
:102220000018004010B504460CB9012010BD94F808
:102230003D0028B9002084F83C00204600F026F834
:10224000022084F83D00211D206802F011FD0120CC
:1022500084F8460000BF84F83E0001213F2001556C
:10226000402001554120015500BF00BF012084F8E6
:10227000420043200155442001554520015500BF2F
:10228000012084F83D000020D0E7000010B586B0A2
:102290000446142101A8FDF7DFFF95492068884214
:1022A00020D100BF002000909248006840F001005B
:1022B000904908600846006800F00100009000BFE7
:1022C00000BF012204211820FFF75EF91820FFF754
:1022D0004BF9012203211920FFF756F91920FFF7C6
:1022E00043F903E12068B0F1804F31D100BF0020F5
:1022F00000908048001F006840F001007D49091FE0
:1023000008600846006800F00100009000BF00BFB0
:1023100000BF0020009077481438006840F00100AA
:102320007449143908600846006800F00100009004
:1023300000BF00BF01200190022002900020039006
:1023400004900120059001A96B48FEF77DFFCDE0C8
:102350006A492068884211D100BF0020009065487A
:10236000001F006840F002006249091F086008462B
:10237000006800F00200009000BFB7E060492068EC
:10238000884211D100BF002000905A48001F006809
:1023900040F004005749091F08600846006800F033
:1023A0000400009000BFA1E05649206888421AD17D
:1023B00000BF002000904F48001F006840F0100050
:1023C0004C49091F08600846006800F010000090A2
:1023D00000BF00BF002204213620FFF7D5F83620C9
:1023E000FFF7C2F882E048492068884211D100BF57
:1023F000002000903F48001F006840F020003D4949
:10240000091F08600846006800F02000009000BF27
:102410006CE03E49206888422FD100BF0020009028
:102420003448006840F002003249086008460068FD
:1024300000F00200009000BF00BF00BF002000902D
:102440002C481438006840F004002A491439086008
:102450000846006800F00400009000BF00BF402064
:102460000190022002900020039004900320059028
:1024700001A92748FEF7E8FE38E02649206888428F
:1024800018D100BF002000901A48006840F4803046
:10249000184908600846006800F48030009000BFCA
:1024A00000BF012204211820FFF76EF81820FFF763
:1024B0005BF81BE018492068884217D100BF002054
:1024C00000900C48006840F400300A490860084653
:1024D000006800F40030009000BF00BF012203211B
:1024E0001920FFF751F81920FFF73EF806B010BD8C
:1024F0000000014044380240000002400004004057
:10250000000800400010004000140040000401409A
:10251000000802400040014000440140014691F89B
:102520003D00012801D001207047022081F83D00C4
:102530000868C06840F001000B68D8601A4B086852
:1025400098421BD00868B0F1804F17D0174B08682D
:10255000984213D0164B086898420FD0154B086864
:1025600098420BD0144B0868984207D0134B086868
:10257000984203D0124B086898420CD108688068D2
:1025800000F00702062A0CD00868006840F001003D
:102590000B68186005E00868006840F001000B68EF
:1025A00018600020C0E70000000001400004004067
:1025B00000080040000C00400004014000400140C1
:1025C000001800402DE9F04104460D46002700BFE9
:1025D00094F83C00012802D10220BDE8F0810120DE
:1025E00084F83C0000BF022084F83D002068866823
:1025F00026F0770626F47F462068866028685028F3
:1026000033D00CDC202850D004DC00284BD010281C
:1026100051D149E0302849D040284CD139E06028D8
:102620002DD0702807D0B0F5805F03D0B0F5005FE3
:1026300041D10DE041E0D5E902136A68206802F05B
:1026400094FB2068866846F077062068866034E050
:10265000D5E902136A68206802F087FB2068806869
:1026600040F480402168886027E0EA686968206853
:1026700002F0C5FC5021206802F082FB1DE0EA68F0
:102680006968206802F016FD6021206802F078FB7E
:1026900013E0EA686968206802F0B1FC4021206814
:1026A00002F06EFB09E000BF00BF00BF2968206890
:1026B00002F066FB01E0012700BF00BF012084F8A3
:1026C0003D0000BF002084F83C0000BF384684E78E
:1026D00070472DE9F04104460D461646002700BF1D
:1026E00094F83C00012802D10220BDE8F0810120CD
:1026F00084F83C0000BF96B9EB68D5E90012206869
:1027000002F090FC2068806920F00C00216888614C
:1027100020688069A96808432168886141E0042E27
:1027200013D1EB68D5E90012206802F0D7FC2068CD
:10273000806920F440602168886120688069A96808
:1027400040EA0120216888612BE0082E12D1EB6855
:10275000D5E90012206802F0DEFC2068C06920F094
:102760000C002168C8612068C069A9680843216815
:10277000C86116E00C2E13D1EB68D5E90012206871
:1027800002F0E5FC2068C06920F440602168C8615F
:102790002068C069A96840EA01202168C86100E09A
:1027A000012700BF002084F83C0000BF38469CE7AA
:1027B00010B504460CB9012010BD94F83D0028B9AD
:1027C000002084F83C00204600F025F8022084F820
:1027D0003D00211D206802F04BFA012084F84600DC
:1027E00000BF84F83E0001213F20015540200155E3
:1027F0004120015500BF00BF012084F84200432062
:102800000155442001554520015500BF012084F8A1
:102810003D000020D0E7704710B5044620680069ED
:10282000C0F34000D8B12068C068C0F34000B0B128
:102830006FF002002168086101202077206880691C
:1028400000F0030018B12046FFF742FF05E02046E4
:1028500000F006F9204600F0BAF900202077206841
:102860000069C0F38000D8B12068C068C0F3800060
:10287000B0B16FF004002168086102202077206861
:10288000806900F4407018B12046FFF721FF05E091
:10289000204600F0E5F8204600F099F90020207766
:1028A00020680069C0F3C000D8B12068C068C0F3D8
:1028B000C000B0B16FF008002168086104202077E3
:1028C0002068C06900F0030018B12046FFF700FF40
:1028D00005E0204600F0C4F8204600F078F900201A
:1028E000207720680069C0F30010D8B12068C06864
:1028F000C0F30010B0B16FF010002168086108202B
:1029000020772068C06900F4407018B12046FFF7B6
:10291000DFFE05E0204600F0A3F8204600F057F95E
:10292000002020772068006900F0010058B120687D
:10293000C06800F0010030B16FF00100216808614B
:10294000204600F01FFA20680069C0F3C01058B19B
:102950002068C068C0F3C01030B16FF080002168FB
:1029600008612046FFF7C7FB20680069C0F38010AC
:1029700058B12068C068C0F3801030B16FF04000DB
:1029800021680861204600F034FA20680069C0F32D
:10299000401058B12068C068C0F3401030B16FF0EB
:1029A0002000216808612046FFF7A6FB10BD00004B
:1029B00010B586B00446142101A8FDF74DFC23494B
:1029C000206888421ED100BF002000902048006887
:1029D00040F010001E4908600846006800F0100032
:1029E000009000BF00BF4FF4D4400190022002903D
:1029F0000020039004900120059001A91548FEF7DE
:102A000023FC21E01449206888421DD100BF00202A
:102A100000900F48006840F008000D490860084623
:102A2000006800F00800009000BF00BF4FF4704045
:102A30000190022002900020039004900220059053
:102A400001A90648FEF700FC06B010BD00000140D9
:102A5000303802400010024000080040000C0240E4
:102A600070472DE9F04104460D461646002700BF89
:102A700094F83C00012802D10220BDE8F081012039
:102A800084F83C0000BF36B1042E1BD0082E31D094
:102A90000C2E5ED145E02946206802F07BF92068C3
:102AA000806940F00800216888612068806920F012
:102AB00004002168886120688069296908432168C9
:102AC000886148E02946206802F09CF92068806906
:102AD00040F40060216888612068806920F480608B
:102AE0002168886120688069296940EA012021689D
:102AF000886130E02946206802F0C2F92068C06988
:102B000040F008002168C8612068C06920F0040016
:102B10002168C8612068C069296908432168C861C3
:102B200019E02946206802F0E7F92068C06940F4FE
:102B300000602168C8612068C06920F48060216855
:102B4000C8612068C069296940EA01202168C8611C
:102B500001E0012700BF00BF00BF002084F83C0057
:102B600000BF384689E710B504460CB9012010BDF6
:102B700094F83D0028B9002084F83C00204600F07D
:102B800025F8022084F83D00211D206802F070F82D
:102B9000012084F8460000BF84F83E0001213F2058
:102BA0000155402001554120015500BF00BF0120C3
:102BB00084F8420043200155442001554520015529
:102BC00000BF012084F83D000020D0E77047704727
:102BD00070B504460D4615B994F83E000BE0042D7F
:102BE00002D13F20005D06E0082D02D14020005DAB
:102BF00001E04120005D012801D0012070BD1DB918
:102C0000022084F83E000EE0042D03D102213F2073
:102C1000015508E0082D03D102214020015502E0B2
:102C200002214120015501222946206802F08CF83A
:102C300023492068884203D022492068884201D174
:102C4000012000E0002028B12068406C40F40040E2
:102C5000216848641A49206888421BD02068B0F176
:102C6000804F17D018492068884213D01749206830
:102C700088420FD01649206888420BD0114920683D
:102C8000884207D013492068884203D0124920683F
:102C900088420CD12068806800F00706062E0CD010
:102CA0002068006840F001002168086005E02068A5
:102CB000006840F001002168086000209EE70000E5
:102CC00000000140000401400004004000080040F2
:102CD000000C0040004001400018004030B50446A0
:102CE0000D4600222946206802F02EF8234920686C
:102CF000884203D022492068884201D1012000E0A7
:102D0000002090B100BF2068006A41F21111084014
:102D100050B92068006A8910084028B92068406CC2
:102D200020F400402168486400BF00BF2068006AAA
:102D300041F21111084050B92068006A891008401A
:102D400028B92068006820F001002168086000BFF1
:102D50001DB9012084F83E000EE0042D03D10121AD
:102D60003F20015508E0082D03D1012140200155E5
:102D700002E0012141200155002030BD000001404A
:102D800000040140704770B504460D4600BF94F83A
:102D90003C00012801D1022070BD012084F83C00D4
:102DA00000BF022084F83D002946204602F0CEF8FC
:102DB00048B1012084F83D0000BF002084F83C00A9
:102DC00000BF0120E8E72068C06820F040002168CB
:102DD000C8602068C06820F480402168C860012075
:102DE00084F83D0000BF002084F83C0000BF00BF15
:102DF000D2E77047704770B50446002520684069E7
:102E0000C0F3C01594F83D00212817D1B5B100BF1B
:102E100000BF2168143151E8001F21F080002168B3
:102E2000143141E80002002AF3D100BF606B10B1F9
:102E3000606BFDF7B1FF204602F0CBFA20684069D5
:102E4000C0F3801594F83E00222817D1B5B100BF19
:102E500000BF2168143151E8001F21F040002168B3
:102E6000143141E80002002AF3D100BFA06B10B179
:102E7000A06BFDF791FF204602F065FA002070BDBF
:102E8000704700002DE9F84F044620680568206867
:102E9000C668206847694FF00009CA4605F00F0967
:102EA000B9F1000F0AD105F0200038B106F020007A
:102EB00020B1204602F0A0FABDE8F88FB9F1000F6A
:102EC0007CD007F0010018B906F49070002875D086
:102ED00005F0010030B106F4807018B1206C40F0AC
:102EE0000100206405F0040030B107F0010018B1C2
:102EF000206C40F00200206405F0020030B107F0C1
:102F0000010018B1206C40F00400206405F00800B6
:102F100048B106F0200010B907F0010018B1206C8C
:102F200040F008002064206C002846D005F0200006
:102F300028B106F0200010B1204602F05DFA2068AA
:102F40004069C0F3801A206C00F0080010B9BAF193
:102F5000000F2DD0204602F0F6F92068406900F0FD
:102F60004000402820D100BF00BF2168143151E843
:102F7000001F21F040002168143141E80002002ABE
:102F8000F3D100BFA06B50B17548A16B0865A06B71
:102F9000FDF758FF88B1A06B016D88470DE0204612
:102FA000FFF76EFF09E009E02046FFF769FF04E044
:102FB0002046FFF765FF002020647DE7206B012895
:102FC00076D105F01000002872D006F0100000281D
:102FD000FAD000BF002000902068006800902068B0
:102FE0004068009000BF00BF2068406900F04000CA
:102FF00040285ED1A06B006840681FFA80F8B8F1E5
:10300000000F54D0A08D404551DDA4F82E80A06B58
:10301000C069B0F5807F43D000BF00BF21680C318C
:1030200051E8001F21F4807021680C3141E8000252
:10303000002AF3D100BF00BF00BF2168143151E85E
:10304000001F21F001002168143141E80002002A2C
:10305000F3D100BF00BF00BF2168143151E8001F49
:1030600021F040002168143141E80002002AF3D128
:1030700000BF202084F83E000020206300BF00BF76
:1030800021680C3151E8001F21F0100021680C313B
:1030900041E80002002AF3D100BFA06BFDF77CFEDF
:1030A000A08DE28D801A81B22046FFF7A3FE03E7D0
:1030B00040E0A08DE18D401A1FFA80F8E08DC0B38A
:1030C000B8F1000F35D000BF00BF21680C3151E8C6
:1030D000001F21F4907021680C3141E80002002AA1
:1030E000F3D100BF00BF00BF2168143151E8001FB9
:1030F00021F001002168143141E80002002AF3D1D7
:1031000000BF202084F83E000020206300BF00BFE5
:1031100021680C3151E8001F21F0100021680C31AA
:1031200041E80002002AF3D100BF41462046FFF7E4
:1031300061FEC1E605F0800030B106F0800018B1F4
:10314000204602F053FBB7E605F0400030B106F030
:10315000400018B1204602F02CF9ADE600BFABE606
:103160001352000810B504460CB9012010BDA06927
:1031700000B100E000BF94F83D0028B9002084F8B9
:103180003C00204600F028F8242084F83D00206808
:10319000C06820F400502168C860204602F0A8F9F9
:1031A0002068006920F49040216808612068406927
:1031B00020F02A00216848612068C06840F400506F
:1031C0002168C86000202064202084F83D0084F835
:1031D0003E000020CAE7000010B586B00446142166
:1031E00001A8FDF739F87F492068884279D100BFEE
:1031F000002000907C48006840F010007A49086088
:103200000846006800F01000009000BF00BF00BF3B
:103210000020009074481438006840F001007249A2
:10322000143908600846006800F00100009000BFF3
:1032300000BF4FF4C0600190022002900020039074
:10324000032004900720059001A96848FDF7FCFFC2
:103250006748684908604FF0006048600021654891
:103260008160C1604FF48061016100214161816131
:103270004FF48071C161002101624162FDF716FFC8
:1032800008B1FDF753FD00BF5A48A063846300BF37
:1032900057487830584908604FF000604860402136
:1032A000554881600021C1604FF4806101610021B7
:1032B00041618161C16101624162FDF7F7FE08B1C0
:1032C000FDF734FD00BF4C486063846300BF0022FB
:1032D00001212520FEF758F92520FEF745F97EE06B
:1032E000FFE746492068884279D100BF002000905E
:1032F0003D48001F006840F480203B49091F0860DA
:103300000846006800F48020009000BF00BF00BFA6
:103310000020009034481438006840F0080032491A
:10332000143908600846006800F00800009000BFEB
:1033300000BF4FF4407001900220029000200390E3
:10334000032004900720059001A92D48FDF77CFF7C
:103350002C482D4908604FF00060486000212A4841
:103360008160C1604FF48061016100214161816130
:103370004FF48071C161002101624162FDF796FE48
:1033800008B1FDF7D3FC00BF1F48A063846300BFF2
:103390001C4830301D4908604FF0006048604021F3
:1033A0001A4881600021C1604FF4806101610021F1
:1033B00041618161C16101624162FDF777FE08B13F
:1033C000FDF7B4FC00BF11486063846300BF0022B6
:1033D00003212720FEF7D8F82720FEF7C5F806B00E
:1033E00010BD0000001001404438024000000240BF
:1033F00040640240780B0020D80B002000480040B9
:10340000000C024028600240380C0020980C00207C
:1034100070B504460D46164694F83E00202816D195
:1034200005B10EB9012070BD00BF94F83C00012821
:1034300001D10220F7E7012084F83C0000BF002002
:10344000206332462946204602F068F9EBE7022065
:10345000E9E7704770472DE9F84F04460E461746D6
:1034600099464FF0000A94F83D0020285AD106B141
:1034700017B90120BDE8F88F00BF94F83C0001287F
:1034800001D10220F6E7012084F83C0000BF0020B3
:103490002064212084F83D00FDF7E8FF8246A784E0
:1034A000E784A068B0F5805F04D1206910B90025D9
:1034B000B04602E035464FF0000800BF002084F817
:1034C0003C0000BF1BE05346002280212046CDF87F
:1034D000009002F0BBF908B10320CBE745B9B8F87A
:1034E0000000C0F308002168486008F1020803E00A
:1034F0002878216848606D1CE08C401EE084E08CD8
:103500000028E0D15346002240212046CDF800900B
:1035100002F09CF908B10320ACE7202084F83D00BC
:103520000020A7E70220A5E7704700BFFEE710B51F
:1035300004460A2C07DA204600F008F808B10120FA
:1035400010BD0020FCE70020FAE7000001460B4810
:1035500050F831000069094B03EBC1039B88184008
:1035600008B9002200E00122044800EBC100807984
:10357000904201D1012070470020FCE7D07900087B
:1035800008B500BF002000901E48006840F480008D
:103590001C4908600846006800F48000009000BFE5
:1035A00000BF00BF002000900846006840F40010F3
:1035B00008600846006800F40010009000BF00BFDB
:1035C000002211460C20FDF7DFFF0C20FDF7CCFF99
:1035D000002211460E20FDF7D7FF0E20FDF7C4FF95
:1035E000002201213A20FDF7CFFF3A20FDF7BCFF72
:1035F000002201214620FDF7C7FF4620FDF7B4FF5A
:1036000008BD00003038024000B587B0142102A880
:10361000FCF722FE00BF002001909C48006840F0AB
:1036200010009A4908600846006800F010000190F8
:1036300000BF00BF00BF002001900846006840F0B6
:10364000040008600846006800F00400019000BF14
:1036500000BF00BF002001900846006840F08000D5
:1036600008600846006800F08000019000BF00BFBD
:1036700000BF002001900846006840F0010008608B
:103680000846006800F00100019000BF00BF00BFC5
:10369000002001900846006840F0020008600846DB
:1036A000006800F00200019000BF00BF00BF0020D2
:1036B00001900846006840F008000860084600686D
:1036C00000F00800019000BF00BF00221C217048DC
:1036D000FDF7C6FE002241F630016E48FDF7C0FE40
:1036E00000224EF203016C48FDF7BAFE012240F6BB
:1036F000D8416948FDF7B4FE012251026548FDF743
:10370000AFFE012211026248FDF7AAFE00220F213E
:103710006248FDF7A5FE7F200290002003900490F0
:1037200002A95F48FDF790FD4FF42440029000206D
:103730000390049002A95748FDF786FD4FF480409E
:1037400002904FF4041003900120049002A9514804
:10375000FDF77AFD1C2002900120039000200490C8
:10376000059002A94A48FDF76FFD41F6300002902E
:103770000120039000200490059002A94548FDF720
:1037800063FD4EF20300029001200390002004909C
:10379000059002A94048FDF757FD4FF4886002905C
:1037A0000120039004900320059002A93A48FDF7F8
:1037B0004BFD4FF40860029011200390012004900B
:1037C0000320059002A93448FDF73EFD4FF4007038
:1037D000029011200390002004900320059002A97C
:1037E0002C48FDF731FD4FF48070029001200390CA
:1037F00004900320059002A92548FDF725FD4FF40C
:103800000040029000200390049002A92048FDF798
:103810001BFD0F20029001200390002004900590D2
:1038200002A91E48FDF710FD8020029000200390A1
:10383000049002A91948FDF707FD182002901120F5
:10384000039000200490059002A91348FDF7FCFCAA
:10385000202002904FF4041003900120049002A94C
:103860000D48FDF7F1FC002204211720FDF78CFE26
:103870001720FDF779FE002204212820FDF784FEA1
:103880002820FDF771FE07B000BD0000303802406F
:10389000000002400008024000040240000C024008
:1038A0000010024010B50E480E4908604FF48270B7
:1038B000486000210B488160C160016141614FF4A3
:1038C000007181613021C161002101624162816228
:1038D0000A21C162FEF738FA08B1FDF727FA10BDD8
:1038E00000300140D004002010B50A480A490860A1
:1038F00042F2CF00486000210748816040F2F31196
:10390000C160002101618161FEF78CFC08B1FDF707
:103910000DFA10BD004401406807002000B595B0C5
:10392000002011901290139014900F9010901C2171
:1039300008A8FCF791FC20216846FCF78DFC38486C
:10394000384908605320486000213648816063216F
:10395000C1600021016141618161FEF763FC08B132
:10396000FDF7E4F94FF48050119011A92D48FEF7AE
:1039700029FE08B1FDF7DAF92A48FFF7F4F808B193
:10398000FDF7D4F900200F9010900FA92548FEF7FD
:10399000EFFB08B1FDF7CAF96020089000200990FC
:1039A0000A900B900C900D900E90002208A91D48D3
:1039B000FFF757F808B1FDF7B9F9042208A919482B
:1039C000FFF74FF808B1FDF7B1F9082208A915482B
:1039D000FFF747F808B1FDF7A9F90C2208A911482B
:1039E000FFF73FF808B1FDF7A1F900200090019022
:1039F0000290039004904FF400500590002007902F
:103A000069460848FEF779FB08B1FDF78FF90548CC
:103A1000FEF73CFC0348FEF7CBFF15B000BD0000ED
:103A2000000001402805002000B58FB000200B9059
:103A30000C900D900E90142106A8FCF70DFC0020B0
:103A40000490059000900190029003904FF0804008
:103A50002949086000204860002127488160491EEC
:103A6000C160002101618161FEF7DCFB08B1FDF757
:103A70005DF94FF480500B900BA91F48FEF7A2FD93
:103A800008B1FDF753F91C48FEF792FE08B1FDF7A7
:103A90004DF90420069050200790002008900A90CD
:103AA00006A91548FFF76FF908B1FDF73FF90020A7
:103AB0000490059004A91048FEF75AFB08B1FDF7E1
:103AC00035F9002000900120019000200290039021
:103AD000002269460848FEF7FCFD08B1FDF726F90B
:103AE00002200190042269460348FEF7F2FD08B166
:103AF000FDF71CF90FB000BD7005002000B587B0C0
:103B000000200390049005900690019002901448C4
:103B100014490860002048600021124881604FF677
:103B2000FF71C160002101618161FEF77BFB08B17B
:103B3000FDF7FCF84FF48050039003A90948FEF705
:103B400041FD08B1FDF7F2F800200190029001A9B3
:103B50000448FEF70DFB08B1FDF7E8F807B000BD1B
:103B600000040040B805002000B58DB00020099089
:103B70000A900B900C90079008901C216846FCF767
:103B80006BFB2B482B4908605420486000212948D2
:103B900081606321C160002101618161FEF742FB08
:103BA00008B1FDF7C3F84FF48050099009A92148E6
:103BB000FEF708FD08B1FDF7B9F81E48FEF7D3FF80
:103BC00008B1FDF7B3F800200790089007A919483D
:103BD000FEF7CEFA08B1FDF7A9F8602000900020AA
:103BE000019002900490002269461248FEF739FFC6
:103BF00008B1FDF79BF8042269460E48FEF731FF35
:103C000008B1FDF793F8082269460A48FEF729FF34
:103C100008B1FDF78BF80C2269460648FEF721FF34
:103C200008B1FDF783F80348FEF7C2FE0DB000BDF2
:103C300000080040000600201CB500200090019004
:103C40000F48FEF723FB0F480D49086042F2CF00F2
:103C5000486000210A4881603121C16000218161F2
:103C6000FEF7E0FA08B1FDF761F80020009001903E
:103C700069460348FEF77CFA08B1FDF757F81CBD0A
:103C800048060020001000401CB500200090019064
:103C90000E480F4908605320486000210C4881609D
:103CA0004FF6FF71C16000218161FEF7BBFA08B1D8
:103CB000FDF73CF800200090019069460448FEF7AB
:103CC00057FA08B1FDF732F81CBD0000001400409F
:103CD0009006002000B58FB000200B900C900D9046
:103CE0000E90142106A8FCF7B7FA00200490059066
:103CF00000900190029003902B482C49086000200E
:103D000048600021294881604FF6FF71C1600021A1
:103D1000016141618161FEF785FA08B1FDF706F89E
:103D20004FF480500B900BA92048FEF74BFC08B1D4
:103D3000FCF7FCFF1D48FEF73BFD08B1FCF7F6FF62
:103D40000420069050200790002008900A9006A9B1
:103D50001648FFF718F808B1FCF7E8FF00200490B8
:103D6000059004A91148FEF703FA08B1FCF7DEFF3D
:103D7000002000900120019000200290039000227A
:103D800069460A48FEF7A5FC08B1FCF7CFFF022000
:103D90000190042269460548FEF79BFC08B1FCF738
:103DA000C5FF0FB000BD000000040140D806002090
:103DB0001FB5002000900190029003900F48104919
:103DC000086042F2CF00486000210D48816040F257
:103DD000AF41C160002101618161FEF723FA08B1A2
:103DE000FCF7A4FF4FF48050009069460448FEF7AA
:103DF000E9FB08B1FCF79AFF1FBD0000004001403D
:103E00002007002010B50B480B4908604FF4E13043
:103E10004860002108488160C16001610C21416156
:103E200000218161C161FFF79DF908B1FCF77EFFB8
:103E300010BD000000100140F00A002010B50F482E
:103E40000F4908604FF4E130486000210C48816060
:103E5000C16001610C21416100218161C161FFF7F5
:103E600081F908B1FCF762FF05480068C06840F0BE
:103E7000100003490968C86010BD000000480040F8
:103E8000340B002000BFFEE700BFFEE7F8B5044694
:103E90000D461646E08820816A460021204600F043
:103EA00047F8BDF800000C490880BDF80000E0802C
:103EB000BDF80000284100F001003070E088218941
:103EC000884203D0012084F83E0002E0002084F8FC
:103ED0003E000020F8BD000074020020F8B5064640
:103EE0000C461546002000906A460221304600F03C
:103EF0001FF83DB10120A040BDF80010084380B27A
:103F0000009005E00120A040BDF800108143009121
:103F100000231A462146054800F07EF8BDF800202F
:103F20000221304600F037F80020F8BD780200206A
:103F30002DE9F04704460E4615460027B846B94617
:103F400003F0BEF821794906080E03F07FF803F06C
:103F500003F9304603F07AF803F0FEF803F0B0F806
:103F60002179012202EB4101C8B203F06FF803F09E
:103F7000F3F8012003F038F88046002003F034F80D
:103F8000074603F0C7F84FEA072909EB0800288025
:103F90002888BDE8F0872DE9F04105460E46144615
:103FA000E7B24FEA242803F08BF829794906080E76
:103FB00003F04CF803F0D0F8304603F047F803F074
:103FC000CBF8384603F042F803F0C6F8404603F059
:103FD0003DF803F0C1F803F09DF8BDE8F081000062
:103FE00010B5002402F09AFF4FF400710848FDF765
:103FF00025FA30B14FF480710648FDF71FFA00B181
:1040000000E00224022C01D102F088FF10BD000064
:1040100000080240000002402DE9F04107468846B2
:1040200015461E4611480470012E01D1012000E002
:104030000020024604234146384600F019F80446A1
:1040400014B12046BDE8F081012D01D1012000E02E
:104050000020024606234146384600F009F804468F
:104060000CB12046EEE70020ECE70000F80200204B
:10407000F8B507460C4615461E466A463146384690
:10408000FFF756FF3DB10120A040BDF800100843E6
:1040900080B2009005E00120A040BDF800108143EF
:1040A0000091BDF80000C2B231463846FFF773FFF9
:1040B000BDF80000021231463846FFF76CFF0020C1
:1040C000F8BD00009FED120A124880ED000A9FED36
:1040D000100A80ED010A9FED0E0A80ED020A9FEDA5
:1040E0000C0A80ED030A9FED0A0A80ED040AB0EE87
:1040F000000A80ED050A9FED080A80ED060A9FED93
:10410000070A80ED070A00200249086248627047EA
:1041100000000000DC0E0020CDCCCC3DCDCC4C3ED0
:104120000246DFED1D0AB0EE600A00EE902AF8EEBE
:10413000E00A1A48C0ED000A00EE901AF8EEE00A14
:10414000C0ED010AD0ED000A90ED011A70EEC10A2F
:10415000C0ED020AD0ED050A90ED021A60EE810A68
:1041600090ED061AD0ED031A41EE610A90ED071AA0
:10417000D0ED041A41EE210AB0EE600AD0ED030A38
:10418000C0ED040AD0ED020AC0ED030AFDEEC00A3C
:10419000C0ED080A006A704700000000DC0E002035
:1041A0007047000070B586B006460C46A28891B2F2
:1041B00000222068FDF754F98DF810604FF4FA7072
:1041C000052302AA04A900901148FDF765FE78B9FD
:1041D0009DF8090000069DF80A1040EA01409DF88C
:1041E0000B1040EA01209DF80C1040EA010501E0A7
:1041F0004FF05A359DF8080006490870A28891B220
:1042000001222068FDF72CF9A562284606B070BD92
:10421000D00400204D0000202DE9F0472DED028B49
:1042200004460D4616464FF001082F46B14632208F
:1042300009FB00F00C2190FBF1F0323000EE100A87
:10424000B8EEC00AB0EE408A2046FCF77BFD27B9E5
:10425000A07B10B94FF0000805E0012F03D1E07BEF
:1042600008B94FF00008B8F1000F78D0D4E9000188
:10427000FEF7AEFCA1682068FEF7AAFC002D5ED117
:10428000606838B9BCEEC80A10EE100A21680968E7
:1042900048631CE06068042807D1BCEEC80A10EE31
:1042A000100A21680968886311E06068082807D14E
:1042B000BCEEC80A10EE100A21680968C86306E05F
:1042C000BCEEC80A10EE100A216809680864A068EC
:1042D00058B99FED4F0A30EE480ABCEEC00A10EE06
:1042E000100A2168096848638EE0A06804280BD191
:1042F0009FED470A30EE480ABCEEC00A10EE100AE5
:104300002168096888637FE0A06808280BD19FEDC9
:10431000400A30EE480ABCEEC00A10EE100A2168CE
:104320000968C86370E09FED3A0A30EE480ABCEEB7
:10433000C00A10EE100A21680968086464E0012DC3
:1043400062D1606860B99FED320A30EE480ABCEE77
:10435000C00A10EE100A21680968486329E050E09D
:10436000606804280BD19FED2A0A30EE480ABCEEA3
:10437000C00A10EE100A21680968886319E06068B5
:1043800008280BD19FED220A30EE480ABCEEC00A85
:1043900010EE100A21680968C8630AE09FED1C0A44
:1043A00030EE480ABCEEC00A10EE100A2168096817
:1043B0000864A06838B9BCEEC80A10EE100A21687B
:1043C0000968486320E0A068042807D1BCEEC80A49
:1043D00010EE100A21680968886315E0A0680828B3
:1043E00007D1BCEEC80A10EE100A21680968C8633C
:1043F0000AE0BCEEC80A10EE100A216809680864D9
:1044000002E0204600F0D3FABDEC028BBDE8F08755
:104410000000C8422DE9F04F2DED088B85B0054610
:104420000F462C464FF000080020049000268146DD
:1044300082460390029001909FED9E0AB0EE408A62
:104440009FED9C0AF0EE408A9FED9A0AB0EE409AEA
:10445000012099490870384602F03CF900EE100A34
:10446000B8EE400AB0EE408AE26C1178104604AA19
:10447000FCF726FAE06C90ED020AF0EE408A9FED20
:104480008F0A30EE680ADFED8E0A30EE200ABCEEAD
:10449000C00A10EE100A81B28A480088401C91FBC5
:1044A000F0F200FB121000EE100AB8EEC00AF0EEB7
:1044B000408A85480088834909880844401CBDEE2D
:1044C000E80A10EE101A411A7E480088401C91FB41
:1044D000F0F200FB1219BDEEE80A10EE100A79495D
:1044E00009880844401C79490988411A75480088A0
:1044F000401C91FBF0F200FB121A734800887349CC
:104500000988401A032190FBF1F00390B9F1000FE4
:1045100004DD0398814501DA012000E000200290CB
:10452000BAF1000F04DD0398824501DA012000E0B2
:10453000002001906448008800EE100AB8EE400A9E
:1045400038EEC00AB0EE409ABDEEC90A10EE101A5D
:10455000BDEEC80A10EE100AFFF7E2FDB0F1000B45
:1045600001DB584601E0CBF10000C6B2322E01DD7E
:10457000322604E00A2E01DA0A2600E000BFB4EE7B
:10458000C89AF1EE10FA01D2012000E00020804626
:10459000029830B1B8F1000F03D1002046490870ED
:1045A00030E0019830B1B8F1000F03D0002042494B
:1045B000087027E039EE480A10EE101A0846FCF79A
:1045C00034F841EC1B0BB0EE4B0AF0EE6B0A01F035
:1045D00061FEB0EE40AAF0EE60AA9FED3D0B53ECF9
:1045E000102B51EC1A0BFCF733F803D200203249A0
:1045F000087007E0F5EEC08AF1EE10FA02D1002053
:104600002D4908709FED340A38EE400AB4EEC90A0D
:10461000F1EE10FA05DD22461021802003F004F8A7
:1046200011E09FED2D0A38EE000AB4EEC90AF1EE52
:1046300010FA05D222460021802002F0F5FF02E0A8
:1046400000201D4908702A46A020296A02F0ECFFCC
:104650002A46EC20296902F0E7FF2A469020A96942
:1046600002F0E2FFE06B70433221B0FBF1FB224627
:104670005946A72002F0D8FF2246A120616A02F025
:10468000D3FF0D480078012806D1A28991B20022FB
:10469000A068FCF7E5FE08E00748007828B9A28981
:1046A00091B20122A068FCF7DBFE05B0BDEC088BDF
:1046B000BDE8F08F00000000620000200000B4435D
:1046C0000000B442600000205C0000205E0000207A
:1046D000000000403333D33F9A99993E2DE9F041D1
:1046E00005460F462C4600263E4667614FF00108FE
:1046F000012E05D122460021802002F095FF04E022
:1047000022461021802002F08FFF2A46A020296A2D
:1047100002F08AFF2A46EC20296902F085FF2A462A
:104720009020A96902F080FF2246A720E16B02F0E9
:104730007BFF2246A420216B02F076FF2246A520B3
:10474000616B02F071FF2246A620A16B02F06CFFA4
:104750002246A720E16B02F067FF2246A820216CC9
:1047600002F062FF2246AA20616C02F05DFF224641
:10477000AB20A16C02F058FF2146A220FFF712FDEA
:1047800030490860226D928891B2226D1068FCF762
:1047900055FE2D490870226D928991B2226D906864
:1047A000FCF74CFE294908702948844202D0294868
:1047B000844227D156B928480078012806D12248DA
:1047C000007818B90120254908700BE0012E09D1A5
:1047D00023480078012805D11C48007810B9012031
:1047E000204908701EB900201E49087002E0002010
:1047F0001A4908701448007817490870134800785F
:10480000174908701548007818B116B94FF000081C
:1048100006E01448007818B1012E01D14FF00008CD
:10482000B8F1010F06D1A28991B20022A068FCF76D
:1048300017FE05E0A28991B20122A068FCF710FEE4
:10484000BDE8F08164020020820000208400002086
:10485000B001002008020020830000206002002038
:1048600085000020610200207CB504460D461646F6
:10487000164800681821B0FBF1F01549B0FBF1F0C3
:104880004FF47A71484301906068B0F5827F0DD192
:104890002B46002280212046009600F01BF898B19C
:1048A000606D40F02000606503207CBD00BF019872
:1048B00000B908E00198401E019020688068C0F3AC
:1048C000C0100028F3D100BF0020EEE7B80400209C
:1048D00040420F002DE9F84F04460D4690461E4613
:1048E000DDF82890FCF7C2FDA0EB0900371AFCF7B1
:1048F000BDFD82462C480068C0F3CB307843009061
:1049000045E0701C002842D0FCF7B0FDA0EB0A0087
:10491000B84200D2A7BB2068406820F0E0002168C0
:1049200048606068B0F5827F0DD1A068B0F5004F97
:1049300003D0A068B0F5806F05D12068006820F032
:10494000400021680860A06AB0F5005F0DD100BF8B
:104950002068006820F40050216808602068006822
:1049600040F400502168086000BF012084F8510025
:1049700000BF002084F8500000BF0320BDE8F88F7E
:10498000FFE7009800B900270098401E00902068BB
:1049900080682840A84201D1012000E00020404565
:1049A000AFD10020EAE70000B8040020704710B53E
:1049B0000446D4E90001FEF791F9A1682068FEF7EA
:1049C0008DF910BD10B50446A28991B20122A068EC
:1049D000FCF746FD10BD000010B52C4800780928F2
:1049E00005DA2A480078401C2849087005E00020B4
:1049F0002649087001202649087026480078312889
:104A000005DA24480078401C2249087005E000209F
:104A10002049087001202049087020480078632848
:104A200005DA1E480078401C1C49087005E000208B
:104A30001A49087001201A4908701A480078C728D6
:104A400005DA18480078401C1649087005E0002077
:104A50001449087001201449087014480088B0F502
:104A6000F97F05DC11480088401C1049088009E0E6
:104A700000200E49088001200D490870C1020D4830
:104A8000FCF7E4FCFCF7F8FC10BD00001C00002063
:104A9000240000201D000020250000201E00002012
:104AA000260000201F0000202700002020000020FA
:104AB000280000200008024000B593B0302107A86C
:104AC000FBF7CAFB142102A8FBF7C6FB00BF0020BE
:104AD00001902448006840F0805022490860084650
:104AE000006800F08050019000BF00BF00BF0020B0
:104AF00001901D48006840F480401B49086008464A
:104B0000006800F48040019000BF00BF01200790C2
:104B10000004089002200D9041050E9108210F918C
:104B20004FF4A8711091022111910421129107A84C
:104B3000FCF7BCFE08B1FCF7F9F80F200290022048
:104B40000390002004904FF4A05005904FF4805043
:104B50000690052102A8FCF769FD08B1FCF7E6F80C
:104B600013B000BD403802400070004003480068A8
:104B700040F47000014908607047000088ED00E0D3
:104B800010B50C480068006900F0010050B10948F8
:104B90000068C06800F0010020B16FF00100054915
:104BA000096808610448FDF737FE0248FDF734FE46
:104BB00010BD0000200700202805002010B50120AE
:104BC000044908700448FDF727FE0448FDF724FE59
:104BD00010BD000086000020280500206807002086
:104BE00010B52DED088B1A4890ED000ADFED190A7B
:104BF00030EE600A10EE101A0846FBF716FD41EC85
:104C00001B0BB0EE4B0AF0EE6B0A01F043FBB0EE6B
:104C100040AAF0EE60AA9FED100B53EC102B51EC64
:104C20001A0BFBF73DFC41EC190B9FED0D0B53EC00
:104C3000102BFBF7C3FB41EC180BFBF721FD0A49D6
:104C400008600A48FDF7E8FDBDEC088B10BD0000C8
:104C5000800400200000FE420000000000C05F4011
:104C600000000000000034408C04002048060020B2
:104C700010B50268294B98420ED0B0F1804F0BD08E
:104C8000274B984208D0274B984205D0264B984294
:104C900002D0264B984203D122F070024B681A438F
:104CA0001E4B984220D0B0F1804F1DD01C4B984233
:104CB0001AD01C4B984217D01B4B984214D01B4B58
:104CC000984211D01A4B98420ED01A4B98420BD0F2
:104CD000194B984208D0194B984205D0184B98426E
:104CE00002D0184B984203D122F44072CB681A4389
:104CF00022F080034C6943EA040202608B68C362BD
:104D00000B688362054B984202D0084B984201D150
:104D10000B6903630123436110BD000000000140E3
:104D20000004004000080040000C00400004014066
:104D3000004001400044014000480140001800408C
:104D4000001C00400020004030B501F01F05012488
:104D500004FA05F3046A9C430462046A01F01F0527
:104D600002FA05F52C43046230BD30B50C4681686B
:104D700021F47F4142EA032525432943816030BD68
:104D80000A46816821F0700142F0070319438160EF
:104D90007047000030B5056A25F001050562026A1A
:104DA0004368846924F0700424F003040D682C43E4
:104DB00022F002028D682A43104DA84200D103E080
:104DC0000F4DA84206D100BF22F00802CD682A4349
:104DD00022F00402094DA84202D0094DA84207D191
:104DE00023F4807323F400734D692B438D692B43A7
:104DF000436084614D684563026230BD000001403C
:104E00000004014030B5056A25F010050562026A0C
:104E10004368846924F4E04424F440740D6844EA4F
:104E2000052422F020028D6842EA0512124DA842A4
:104E300000D103E0114DA84207D100BF22F080024B
:104E4000CD6842EA051222F040020B4DA84202D082
:104E50000A4DA84209D123F4806323F400634D690D
:104E600043EA85038D6943EA8503436084614D68A5
:104E70008563026230BD0000000001400004014073
:104E800030B5056A25F480750562026A4368C46915
:104E900024F0700424F003040D682C4322F4007203
:104EA0008D6842EA0522124DA84200D103E0114D5F
:104EB000A84207D100BF22F40062CD6842EA052271
:104EC00022F480620A4DA84202D00A4DA84209D1BC
:104ED00023F4805323F400534D6943EA05138D698D
:104EE00043EA05134360C4614D68C563026230BD87
:104EF000000001400004014030B5056A25F48055EA
:104F00000562036A4468C26922F4E04222F44072F6
:104F10000D6842EA052223F400538D6843EA053305
:104F2000084DA84202D0084DA84204D124F4804480
:104F30004D6944EA85144460C2614D6805640362AA
:104F400030BD000000000140000401402DE9F047A1
:104F500005460C464FF000092868866826F0700662
:104F60006068064326F007062068064328688660C6
:104F7000606800F00F0100293BD10011082838D2E9
:104F8000DFE800F0333435360B272D04D4E9031362
:104F9000A2682868FFF7E9FE2EE02068052802D104
:104FA0000120BDE8F0872868D0F820802868006AD2
:104FB00020F00100296808622868876927F0F00757
:104FC000206947EA0017286887612868C0F82080B0
:104FD00012E02269A168286800F011F80CE022694B
:104FE000A168286800F066F806E000BF00BF00BFB7
:104FF00002E04FF0010900BF00BF4846D1E730B5DD
:105000000B461446026A056A25F0010505628169AE
:1050100021F0F00141EA041122F00A021A438161F1
:10502000026230BD70B50C461546066A26F00106D0
:1050300006628169026A184EB04214D0B0F1804F06
:1050400011D0164EB0420ED0154EB0420BD0154EB8
:10505000B04208D0144EB04205D0144EB04202D037
:10506000134EB04201D1012600E000261EB121F00E
:105070000301294301E041F0010121F0F001F02694
:1050800006EA0316314322F00A0204F00A0632430C
:105090008161026270BD0000000001400004004018
:1050A00000080040000C00400004014000400140A6
:1050B0000018004030B50B461446056A25F010056F
:1050C00005628169026A21F4704141EA043122F0EB
:1050D000A00242EA03128161026230BD70B50C4643
:1050E0001546066A26F0100606628169026A21F4F6
:1050F000407141EA052121F470414FF4704606EAFF
:105100000336314322F0A002A02606EA04163243F9
:105110008161026270BD70B50C461546066A26F4C0
:1051200080760662C169026A21F00301294321F0F9
:10513000F001F02606EA0316314322F420624FF410
:10514000206606EA04263243C161026270BD70B572
:105150000C461546066A26F480560662C169026A44
:1051600021F4407141EA052121F470414FF4704669
:1051700006EA0336314322F420424FF4204606EA81
:1051800004363243C161026270BD10B50446224646
:10519000EC20216902F048FA22469020A16902F031
:1051A00043FA22469120E16902F03EFA224680202D
:1051B000616902F039FA2246A320E16A02F034FA6A
:1051C0002246A420216B02F02FFA2246A520616B13
:1051D00002F02AFA2246A620A16B02F025FA224606
:1051E000A720E16B02F020FA2246A820216C02F0F1
:1051F0001BFA2246AA20616C02F016FA2246AB2066
:10520000A16C02F011FA2246A020216A02F00CFAE9
:1052100010BD70B50546AC6B0020E085E0842046EB
:10522000FDF72EFE70BD70B506460025B46B2068F4
:105230004069C0F3C01594F83D00212805D125B17F
:105240000020E084204600F0C4F820684069C0F3E4
:10525000801594F83E00222805D125B10020E08574
:10526000204600F070F8206C40F0100020642046CA
:10527000FDF706FE70BD70B50546AC6B286800688A
:1052800000F48070002842D1E08500BF00BF216893
:105290000C3151E8001F21F4807021680C3141E885
:1052A0000002002AF3D100BF00BF00BF2168143103
:1052B00051E8001F21F001002168143141E800028B
:1052C000002AF3D100BF00BF00BF2168143151E8AC
:1052D000001F21F040002168143141E80002002A3B
:1052E000F3D100BF202084F83E00206B01280ED1AE
:1052F00000BF00BF21680C3151E8001F21F01000F1
:1053000021680C3141E80002002AF3D100BF206B74
:10531000012804D1A18D2046FDF76CFD02E0204656
:10532000FEF797F870BD70B50546AC6B206B012891
:1053300005D1A08D41082046FDF75CFD02E0204626
:10534000FEF788F870BD00BF00BF02680C3252E85B
:10535000002F22F4907102680C3242E80013002BF7
:10536000F3D100BF00BF00BF0268143252E8002F23
:1053700022F001010268143242E80013002BF3D13D
:1053800000BF016B01290ED100BF00BF02680C32C3
:1053900052E8002F22F0100102680C3242E800139C
:1053A000002BF3D100BF202180F83E1000210163C3
:1053B000704710B504462068C06820F0400021689E
:1053C000C860202084F83D002046FEF7ADF800209C
:1053D00010BD00BF00BF02680C3252E8002F22F05F
:1053E000C00102680C3242E80013002BF3D100BF69
:1053F000202180F83D107047F8B5044694F83E002F
:10540000222873D1A068B0F5805F0CD1206950B913
:105410000025A66A20684068C0F308003080A06AB2
:10542000801CA06215E0A56A0026A068B0F5805F28
:1054300003D0A06828B9206918B92068406828708E
:1054400004E02068406800F07F002870A06A401CDB
:10545000A062E08D401E80B2E085002844D1206823
:10546000C06820F020002168C8602068C06820F46F
:1054700080702168C8602068406920F001002168C0
:105480004861202084F83E00206B012826D10020AE
:10549000206300BF00BF21680C3151E8001F21F0DC
:1054A000100021680C3141E80002002AF3D100BF4E
:1054B0002068006800F0100010280AD100BF00200A
:1054C000009020680068009020684068009000BF4D
:1054D00000BFA18D2046FDF78DFC02E02046FDF7C0
:1054E000B8FF0020F8BD01E00020FBE70220F9E74B
:1054F0002DE9F84F04462068006920F44050E16827
:105500000843216808612169A0680843616908436C
:10551000E169084300902068C06849F20C61884343
:10552000009908432168C8602068406920F44070F1
:10553000A16908432168486176492068884203D000
:1055400075492068884203D1FCF748F9814602E09A
:10555000FCF734F98146E069B0F5004F6CD10220C8
:105560006168A0FB015003461920A9FB00700146A9
:105570002A463846FAF726FE6421B0FBF1F04FEADE
:10558000001A02206168A0FB01510B461920A9FBFB
:1055900000712A463846FAF715FE834602206168F4
:1055A000A0FB015003461920A9FB00712A4638468A
:1055B000FAF708FE6421B0FBF1F000EBC00101EB4B
:1055C0000010ABEB8000322101EBC0006421B0FB86
:1055D000F1F000F0F8000AEB400A02206168A0FB3D
:1055E000015003461920A9FB007001462A4638469F
:1055F000FAF7E8FD834602206168A0FB01500346EC
:105600001920A9FB00712A463846FAF7DBFD642110
:10561000B0FBF1F000EBC00101EB0010ABEB800040
:10562000322101EBC0006421B0FBF1F000F0070073
:105630005044216888606AE004206168A0FB015042
:1056400003461920A9FB007001462A463846FAF79E
:10565000B9FD824604206168A0FB01500346192071
:10566000A9FB007001462A463846FAF7ABFD6421D3
:10567000B0FBF1F000EBC00101EB0010AAEB8000E1
:10568000322101EB00106421B0FBF1F000F0F00AD0
:1056900004206168A0FB017003461920A9FB00519A
:1056A0003A462846FAF78EFD6421B0FBF1F00AEB8A
:1056B000001A04206168A0FB01510B461920A9FBC8
:1056C00000712A463846FAF77DFD8346042061685A
:1056D000A0FB015003461920A9FB007001462A4691
:1056E0003846FAF76FFD6421B0FBF1F000EBC00122
:1056F00001EB0010ABEB8000322101EB00106421C4
:10570000B0FBF1F000F00F00504421688860BDE864
:10571000F88F0000001001400014014077B581B0FF
:10572000044615460298A062A58500202064222028
:1057300084F83E002A48A16BC8632A48A16B08641C
:105740002948A16BC8640020A16B086502AE3268CD
:105750002368191D2B46A06BFBF71EFD00BF002020
:10576000009020680068009020684068009000BFAA
:1057700000BF00BF002084F83C0000BF206970B16A
:1057800000BF00BF21680C3151E8001F41F4807058
:1057900021680C3141E80002002AF3D100BF00BFAC
:1057A00000BF2168143151E8001F41F00100216859
:1057B000143141E80002002AF3D100BF00BF00BF4E
:1057C0002168143151E8001F41F040002168143174
:1057D00041E80002002AF3D100BF002004B070BDF0
:1057E000775200082753000827520008014691F815
:1057F0003D00212828D18868B0F5805F0BD1086969
:1058000048B90A6A1088C0F308000B685860086A33
:10581000801C086205E00B6A581C086218780B6847
:105820005860C88C401E80B2C88458B90868C068E7
:1058300020F080000B68D8600868C06840F0400025
:105840000B68D860002070470220FCE72DE9F0418A
:1058500004460D4617469846069E34E0701C88B3F1
:105860002EB1FBF703FEA0EB0800B0422BD900BF1E
:1058700000BF21680C3151E8001F21F4D07021686D
:105880000C3141E80002002AF3D100BF00BF00BF85
:105890002168143151E8001F21F001002168143102
:1058A00041E80002002AF3D100BF202084F83D0027
:1058B00084F83E0000BF002084F83C0000BF0320B5
:1058C000BDE8F081FFE7206800682840A84201D1C8
:1058D000012000E00020B842C0D00020F0E7000026
:1058E00038B500251B4800680068C0F3001525B3D3
:1058F00000BF00200090174800680068009015481D
:1059000000684068009000BF00BF1248FDF773FABE
:10591000114800684468C4F1400010490860012043
:105920000F4908700D480F4902680F48FAF77BFCD1
:105930000A4801680C48FBF7A9F8402209490548C4
:10594000FDF766FD0348FDF79DFA01200749087041
:1059500038BD0000F00A0020780B00200C00002069
:1059600008000020B0070020F00700209C04002061
:1059700038B50025194800680068C0F3001525B344
:1059800000BF002000901548006800680090134890
:1059900000684068009000BF00BF1048FDF72BFA78
:1059A0000F4800684468C4F140000E4908600120B7
:1059B0000D4908700B480D4902680D48FAF733FC91
:1059C000084801680A48FBF761F840220749034884
:1059D000FDF71EFD0148FDF755FA38BD340B0020D8
:1059E000380C002014000020100000207008002057
:1059F000700900202DE9F05F06468B46144600250D
:105A00000027A846A946AA4696F83A00001F05288E
:105A10000ED2DFE800F00B0907050300012509E0BD
:105A2000022507E0032505E0042503E0052501E044
:105A3000002500BF00BF012D71D1A07801286ED1D3
:105A400060788B490870207800EE100AB8EE400AA2
:105A5000884880ED000A08460078B8BB854890ED7C
:105A6000000ADFED850AB4EEE00AF1EE10FA2ED25C
:105A70008248008800EE100AB8EE400A8048D0ED57
:105A8000000A30EE600ABCEEC00A10EE100A7B4934
:105A9000088008460088B0F5FA7F03DA4FF4FA7000
:105AA000088008E07548008840F26C71884202DD89
:105AB0000846724908807148008800F095FB012370
:105AC000092270497048FDF7C6FC3CE0FFE76848D2
:105AD0000078012837D1674890ED000ADFED6B0AA6
